:100000000C94AE010C94111A0C94CB010C94CB01FE
:100010000C94CB010C94CB010C94CB010C94CB0130
:100020000C94CB010C94CB010C94391F0C940D2033
:100030000C9490180C94CB010C94CB010C94CB0134
:100040000C94CB010C94CB010C94CB010C94CB0100
:100050000C94CB010C9433190C94CB010C94CB0170
:100060000C94CB010C94CB010C94CB010C94CB01E0
:100070000C94CB010C94CB010C94CB010C94CB01D0
:100080000C94CB010C94CB010C94CB010C94CB01C0
:100090000C94CB010C94CB010C94CB010C94CB01B0
:1000A0000C94CB010C94CB010C94CB012900E00003
:1000B000E2002B005000520039002A001E001F00F1
:1000C00020002100220023002400250014001A0033
:1000D0000800150017001C0018000C000400160092
:1000E000070009000A000B000D000E001D001B0098
:1000F000060019000500110010003600E1004A005A
:100100004C0000002C0051004F004800420043000A
:10011000440045004B004E0061525300260027006A
:1001200030002E003A005400550056001200130013
:100130002F0089003B005F00600061000F0033006A
:10014000340030003C005C005D005E003700380089
:10015000880032003D0059005A005B000000280072
:10016000E50087003E003F00400041000100010023
:100170000100010001000100010001000100010077
:100180000100010001000100010001000100010067
:100190000100010001000100010001000100010057
:1001A0000100010001000100010001000100010047
:1001B0000100010001000100010001000100010037
:1001C0000100000001000100010001000100010028
:1001D0000100010001000100605201000100010066
:1001E0000100010001000100010001000100010007
:1001F00001000100010001000100010001000100F7
:1002000001000100010001000100010001000100E6
:1002100001000100010001000100010000000100D7
:100220000100010001000100010001000E03410076
:1002300044004B0042003900360000001C0342001D
:1002400069007400200054007200610064006500C1
:1002500020004F006E00650000000403090409023D
:100260003B00020100A0FA090400000103010100A3
:100270000921110100012244000705810308000142
:1002800009040100010300000009211101000122FD
:100290006D0007058203200001120100020000002A
:1002A00008A50096AD01000102000105010980A129
:1002B00001850319012AB700150126B700950175BC
:1002C000108100C0050C0901A101850419012AA0B3
:1002D00002150126A002950175108100C0050109D3
:1002E00006A1018506050719E029E71500250195F6
:1002F00008750181020507190029EF1500250195F0
:10030000F07501810205081901290595057501910E
:1003100002950175039101C005010906A1010507B8
:1003200019E029E71500250195087501810295015D
:10033000750881010507190029FF150026FF0095A2
:100340000675088100050819012905150025019584
:100350000575019102950175039101C011241FBE1D
:10036000CFEFDAE0DEBFCDBF11E0A0E0B1E0E6ED17
:10037000F5E402C005900D92AE3AB107D9F723E03B
:10038000AEEAB1E001C01D92A330B207E1F70E94CE
:10039000FB130C946B220C9400008230C8F46C3078
:1003A000B8F44830A8F4E62FF0E09CE0899FE00D17
:1003B000F11D112483E0EE0FFF1F8A95E1F7E40F92
:1003C000F11DEE0FFF1FE455FF4F859194910895A5
:1003D00081E090E008950E94CD01089581E00895A4
:1003E0000E94EE01089581E008950E94EE010895B3
:1003F0000E94F501089508950E94FB010895A6E06A
:10040000B0E0E5E0F2E00C94DB2149835A839E835F
:100410003091B50189819A8131111AC03E8133230F
:1004200099F0222389F00E94FB07182F682F8981F9
:100430009A810E94D80769817A81812F0E94040FD6
:100440002696E3E00C94F7210E94E907182FF3CFDA
:100450000E94FB0769817A81F1CFFC01262F408140
:10046000518162817381848195810E94FF01089589
:10047000CF93DF93EC0161E00E942D02BE010E9448
:10048000F001DF91CF910895CF93DF93EC0160E00D
:100490000E942D02BE010E94FC01DF91CF910895C0
:1004A00021E030E0A90102C0440F551F8A95E2F710
:1004B000CA010E94FA060895CF93C82F81E090E008
:1004C0000C2E02C0880F991F0A94E2F70E94670C55
:1004D0008C2F0E945002CF91089581E008950E94D0
:1004E0006D020895CF93C82F0E94AD068C2F0E94F5
:1004F0006F022FEF84E39CE0215080409040E1F7B1
:1005000000C00000CF91089581E00E9472020E9415
:100510005719089580E00E9472020E946819089598
:100520000F931F93CF93DF938C0161E00E942D0204
:10053000EC01B8010E94F801811106C080E0DF9152
:10054000CF911F910F910895B801CE010E944016DE
:100550008823A1F3B801CE010E940015882371F30E
:10056000B801CE010E94D614882341F3B801CE0110
:100570000E944810882311F3F8018581882361F0D7
:10058000C330FCE7DF07E9F058F4C115ECE7DE07FC
:10059000A9F0C130DC47B9F0C8010E94F301CFCF08
:1005A000CB358CE7D807A9F0CC35ECE7DE0771F046
:1005B000CA35DC4789F70E94420CEECF0E948402C4
:1005C000BDCF0E944A0C0E948A02B8CF0E94380C0C
:1005D000E3CF0E94460CE0CF0E946D180E940C03EE
:1005E00008950E9410030E947218089581E00895F2
:1005F0000895CF93DF93D82F0E94F602C82F882347
:1006000019F08D2F0E94F8028C2FDF91CF91089561
:1006100008950E94F902089580E00E940903089558
:100620000E9489160E9409030895CF930E9489169B
:10063000C82F8091B0018C1779F0C093B0010E944F
:10064000FC186093B1017093B2018093B301909351
:10065000B4018C2F0E940903CF910895ADE0B0E062
:10066000E4E3F3E00C94DC21488759876A877B87B1
:100670008C879D8791110E94480B1F8286E0FE01A6
:100680003896DE01119601900D928A95E1F78D81E1
:1006900081110DC029813A814B815C816D817E8100
:1006A0008F810E94920A2D96E2E00C94F821CE01EF
:1006B00001960E9438028111EDCFF5CFFC01248113
:1006C000213021F4808191810E942D080895CF93DB
:1006D000C82F8823C9F08238C9F40E949D1681FD75
:1006E00013C089E30E94B1170E94DC0B2FEF87EE45
:1006F00093E0215080409040E1F700C0000089E382
:100700000E94CB170E94DC0BCF9108958338A1F48F
:100710000E949D1680FDF8CF83E50E94B1170E94CC
:10072000DC0B2FEF81EE94E0215080409040E1F708
:1007300000C0000083E5E4CF8438A1F40E949D1638
:1007400082FDE2CF87E40E94B1170E94DC0B2FEFFD
:1007500081EE94E0215080409040E1F700C000001D
:1007600087E4CECF8CEF8C0F813A98F48C2F0E94C7
:1007700087148111C9CF8C2F0E942517882329F057
:100780008C2F0E94CB170E94DC0B8C2F0E94B1177C
:10079000B9CF80E28C0F883048F4C77081E001C087
:1007A000880FCA95EAF70E942B0BACCFEBE5EC0F54
:1007B000E33040F4F0E0EF59FE4F808190E00E947A
:1007C000B916A2CFC85ACB3108F09ECFEC2FF0E07B
:1007D000EE0FFF1FE55DFE4F808191810E94DE16C6
:1007E00093CF882309F44DC0823879F40E949D1676
:1007F00081FF47C089E30E94B1170E94DC0B89E3A7
:100800000E94CB170E94DC0B0895833859F40E9494
:100810009D1680FF36C083E50E94B1170E94DC0B55
:1008200083E5EECF843859F40E949D1682FF29C0DB
:1008300087E40E94B1170E94DC0B87E4E1CF9CEFB4
:10084000980F913AE8F290E2980F983050F4877040
:1008500091E001C0990F8A95EAF7892F0E94310B28
:10086000D1CF9BE5980F933028F490E080E00E9470
:10087000B9160895885A8B3120F490E080E00E94E8
:10088000DE1608951F93CF93DF93182FEB010E947C
:100890006703209739F4812F0E94F103DF91CF91F4
:1008A0001F9108958FE99FE00197F1F700C00000C4
:1008B0002197EFCF70E060E0893311F460E570E0DC
:1008C0000E9442040895882321F00E942B0B0E946D
:1008D000DC0B0895882321F00E94310B0E94DC0B71
:1008E0000895B0E0A0E0E7E7F4E00C94D5216C01B6
:1008F000D62FC72FFC011581068102950F700E942B
:10090000210BE82E8823F9F0E12E1123E1F08C2F42
:10091000807F803461F080E28D0F883008F18C2F69
:10092000807E803221F4D230D8F00023C9F080914B
:10093000D30282FF15C082E00E940C0C0E94210BA2
:1009400091E0E82EE926BC2EB2949FE0B922FBE0AC
:10095000FB15B8F1EB2DF0E0E359FD4D0C94C621E9
:10096000E12CF1CF0C2F0F70C07F11F00295007FAA
:10097000112399F0002359F080E28D0F883010F098
:10098000D11107C0802F0E942B0B0E94DC0B8D2FF2
:100990005AC0802F0E943B0BF8CF8D2F0E94F1038D
:1009A000002379F080E28D0F883010F0D11104C05F
:1009B000802F0E94310B03C0802F0E94410B0E94A8
:1009C000DC0BEB2DE850FF0B349720F40E948916C6
:1009D0000E940903EE2089F00E941D0B80FD0DC0CE
:1009E000F60115820E94170B0E943607C6010E946D
:1009F00078060E94170B0E944607CDB7DEB7E9E0E4
:100A00000C94F1212C2F2F70F22EC07FC03219F0E0
:100A1000F29480EFF822DD2341F0D130D1F111239F
:100A200009F444C00023F1F0B2CF8091D30282FDDB
:100A300015C0112359F0FF2029F08F2D0E942B0B98
:100A40000E94DC0B80E00E946703BBCF80E00E9425
:100A5000F103FF2009F4B5CF8F2DABCF112369F03F
:100A6000011104C08F2D0E946304ABCF013009F047
:100A7000A8CF8F2D0E945F0BA4CF0111A2CF8F2D85
:100A80000E946A048F2D0E946B0B8F2D0E944F0BCA
:100A900098CF112321F0063008F093CFE3CF053033
:100AA00008F08FCF8F2D0E946A048BCF0023D1F3E3
:100AB000D93349F43FEF87EE93E0315080409040C6
:100AC000E1F700C000008D2F0E94F1037ACF8C2F38
:100AD00086958695837069F0813009F072CF8D2FED
:100AE0009C2F9370111102C080E090E00E94DE16EE
:100AF00068CF8D2F9C2F9370111102C080E090E081
:100B00000E94B9165ECF8C2F8370A1F5111159CFB9
:100B10004D2F429546954770440F440F2D2F2F704F
:100B200030E0042E02C0220F331F0A94E2F790E057
:100B300080E0D4FF09C08FE090E002C0880F991FC9
:100B40004A95E2F780959095C695C695C370822B1D
:100B5000932BC23049F058F4C13019F00E940607B7
:100B600030CF0E94FD062DCF0E940F072ACF0E9492
:100B7000FA0627CF8695112311F08C2F81708823D8
:100B800009F41FCF4D2F429546954770440F440FEF
:100B90002D2F2F7030E0042E02C0220F331F0A9435
:100BA000E2F790E080E0D4FF09C08FE090E002C05F
:100BB000880F991F4A95E2F780959095C695C6953E
:100BC000C370822B932BC23049F058F4C13019F016
:100BD0000E947107F6CE0E946807F3CE0E947A0742
:100BE000F0CE0E941E07EDCECF70112329F08C2F7E
:100BF0000E9436078D2F37CF8D2F0E946A048C2FCD
:100C00000E944607DECED23F41F160F4D03FB9F0FA
:100C1000D13F81F0112309F443C00111B8CE8C2FCC
:100C20008F711FC0D33F01F1D43FA1F78091D30250
:100C300082FD24C08C2F8F71112311F312C0112358
:100C400041F0053008F0BDCE8C2F8F710E945807FF
:100C5000B8CE063008F0B5CEF7CF8C2F8F711111BA
:100C6000CFCF0E943607ADCE112329F08C2F8F7184
:100C70000E942A07A6CE0E942507A3CE112331F099
:100C800063E08C2F8F710E94EE0B9BCE81E00E945F
:100C90000C0C023008F495CE82E00E940C0C91CE30
:100CA000002359F0D93309F00ECFEFEFF7EE23E030
:100CB000E150F0402040E1F704CF8C2F8F71A0CF9E
:100CC0000F931F93CF93DF93EC01688179818D811E
:100CD0000E9438088C010E9483070E94F906B8011F
:100CE000CE010E947104DF91CF911F910F91089561
:100CF000CF93DF93EC018C81882399F0CE010E9481
:100D00009002811111C00E94210B882351F08D8126
:100D1000882339F08091D30282FF03C082E00E94D1
:100D20000C0CDF91CF910895CE010E946006CE0198
:100D30000E944402F6CF90E080E00E94B91690E055
:100D400080E00E94DE160E94480B0E94DC0B089592
:100D50000E94E5170E949B0608950E94380B0E948E
:100D6000A806089592959F70963091F058F4925F7E
:100D70009F70923058F4803F19F030F4883E30F480
:100D800081E008959A5FF4CF843FD1F380E0089525
:100D9000883EB0F3813FD1F7F3CFFC0124812223B9
:100DA00039F0808191810E942D080E94B206089539
:100DB00080E00895A6E0B0E0E0EEF6E00C94DC21DF
:100DC0002696E2E00C94F821A7E0B0E0EAEEF6E027
:100DD0000C94DC212796E2E00C94F82108950E94FF
:100DE000EE0608950E94EF069093E9018093E801D2
:100DF000089508950E94F20608952091E801309127
:100E0000E901822B932B0E94F20608952091E801BC
:100E10003091E901822393230E94F20608952091E4
:100E2000E8013091E901822793270E94F206089594
:100E30000E94EE0608950E94180708950E941B075D
:100E40009093E7018093E601089590E080E00E948E
:100E50001E07089521E030E0A90102C0440F551F8C
:100E60008A95E2F7CA010E941E07089521E030E04A
:100E700002C0220F331F8A95E2F78091E60190911C
:100E8000E701822B932B0E941E07089521E030E09A
:100E900002C0220F331F8A95E2F72095309580918A
:100EA000E6019091E701822393230E941E07089593
:100EB00021E030E002C0220F331F8A95E2F78091D3
:100EC000E6019091E701822793270E941E0708956B
:100ED0002091E6013091E701822B932B0E941E079F
:100EE00008952091E6013091E701822393230E9427
:100EF0001E0708952091E6013091E701822793278C
:100F00000E941E0708950895262F277091E001C0C2
:100F1000990F2A95EAF723E0769567952A95E1F7E8
:100F2000660F771F660F771FFA01E60FF71F50E075
:100F300040E0682F70E08191DF0111979B01042E42
:100F400002C0369527950A94E2F72170219528274B
:100F5000292328272C934F5F5F4F4430510559F7C1
:100F60000895A82FA77023E0969587952A95E1F715
:100F7000880F991F880F991FFB01E80FF91F50E098
:100F800040E080E0219130E00A2E02C0369527959E
:100F90000A94E2F721703327042E01C0220F0A942D
:100FA000EAF7822B4F5F5F4F4430510559F70895A0
:100FB000262F9C3068F4883058F438E0939FB001B5
:100FC0001124680F711D46EB51E0822F0E948407A7
:100FD00008959C3070F4883060F448E0949F90014C
:100FE000112466EB71E0820F932F911D0E94B107CF
:100FF000089580E00895B0E0A0E0E1E0F8E00C940E
:10100000D5217C010091E6011091E7018091E80172
:101010009091E901082B192BCFE0D0E0CC24C394A8
:10102000D12CBC2EC6010C2E02C0880F991F0A9429
:10103000E2F780239123892B49F4219790F7B12C73
:101040008B2DCDB7DEB7E9E00C94F121B7018C2FE1
:101050000E94100F019789F3F3CFCF93DF93EC0138
:101060000E94FB07BE010E94100FDF91CF910895EF
:101070001F93CF93DF93EB019091B501992339F042
:10108000CB010E942D08DF91CF911F9108958823F5
:1010900069F0CB010E94FB07182F682FCE010E9438
:1010A000D807BE01812F0E94100FEDCFCB010E9407
:1010B000E907182FF6CF1F93CF93DF93C091EA0172
:1010C00017E08091EB018C1304C0DF91CF911F9149
:1010D0000895D0E01C9FF0011D9FF00D1124E451F4
:1010E000FE4F2081318142815381648175818681E7
:1010F0000E94E4062196C770E4CF2091240230912B
:101100002502409126025091270260912802709199
:10111000290280912A020E94E4060895CF93DF936A
:1011200080912A02807F09F04DC080912902882396
:1011300009F448C0E091EA015091EB01C091250209
:10114000D0912402609126027091270247E05E1739
:10115000C9F18E2F90E0E49FF0011124E451FE4F7D
:101160002481222391F1489FF001499FF00D112421
:10117000DF01A451BE4F11962C9111972C1325C05D
:101180002C912D1322C015962C91159721111DC05D
:1011900012962D913C91261B370B24363105A8F46D
:1011A00080912A028F70806180932A02EE50FE4F58
:1011B00080818F708061808384E292E00E94780653
:1011C0000E945B08DF91CF910895FC013196E77092
:1011D000BECF482F2091EA019091EB0157E02913EF
:1011E00002C080E0089530E0529FF001539FF00D5F
:1011F0001124E451FE4F8181681306C08081481399
:1012000003C085818111EECF2F5F3F4F2770E7CF5D
:10121000A4E1B0E0EEE0F9E00C94D2218C0186E08C
:10122000F801DE011F9601900D928A95E1F7F80111
:101230008481E58094E2A92E92E0B92E9091280253
:1012400091111FC08823D1F0EE20A9F0C8010E949F
:10125000CD06F82E882379F087E0F801D5010190BA
:101260000D928A95E1F7C5010E945E030E948E08E7
:101270000E947D085FC0C8010E947806FF24F39495
:1012800059C0C080D18082809380F0902902209143
:10129000260230912702A401421B530BFF2009F4C0
:1012A000F9C04436510508F0A7C0882309F442C0AC
:1012B0009091250280912A02282F207F09F05CC09E
:1012C0009D1116C090912402C91212C0E1104EC0A7
:1012D0008F70806180932A020E947D0884E292E0F0
:1012E0000E94780680912A02F8018683F12C22C0A0
:1012F000E1103CC06D2D8C2D0E94E9086D2D8C2DC8
:101300000E94E908E82E8111F1CFCF86D88A8F8517
:1013100098890E942D08292F22952F70243078F467
:101320009F702230A8F09923B9F0F8019681907F40
:1013300099F4FE2C8F2D6496ECE00C94EE212A5F3C
:101340002F70223068F0C8010E947806EF2CF1CF90
:10135000992311F0882369F3805E883050F3F3CF2E
:10136000803F38F3815F833070F7E3CF80912A02AA
:10137000816080932A02BACF9D1113C090912402FC
:10138000C9120FC0E1100DC08683C8010E94780603
:1013900087E0F801A4E2B2E001900D928A95E1F7AE
:1013A00067CFC8010E94CD06882309F464CFEE20E0
:1013B00009F461CF80912A02803288F020912402C2
:1013C00030912502398728879B868A86909128024A
:1013D0009C871D868E87CE0108960E94780687E03E
:1013E000F801A4E2B2E001900D928A95E1F70E9423
:1013F0008E080E947D0842CF90912A02292F207FDB
:10140000A1F4682D9A8A898AA6017A899E2D0E9464
:10141000DA0684E292E00E94780687E0F5011192F4
:101420008A95E9F70E947D0861CF882309F482CF6D
:10143000809125028D1110C080912402C8120CC029
:10144000E1100AC09683C8010E94780687E0F50182
:1014500011928A95E9F76ECFC8010E94CD068823C4
:1014600009F409CFEE2009F406CF80912A028032D8
:1014700008F4B5CF20912402309125023A832983C4
:101480009C828B82909128029D831E828F83CE0145
:101490000196A3CF44365105B8F5882309F4EECE62
:1014A000FE2CEE2009F4E7CE809125028D111EC09E
:1014B00080912402C8121AC080912A0280FD0DC0BA
:1014C000982F907F51F08683903F09F45ECF982F3C
:1014D000907F905F8F70892B57CF87E0F801A4E24F
:1014E000B2E001900D928A95E1F724CFC8010E94E5
:1014F000CD06811174CF80912A02816080932A02E7
:10150000C8010E94780616CF682D9A8A898AA6019A
:101510007A899E2D0E94DA0687E0F50111928A955C
:10152000E9F7A6CEAEE0B0E0E8E9FAE00C94DB2102
:10153000288739874A875B876C877D878E87CE01AE
:1015400008960E9408098823B1F06C85662341F053
:10155000288539854A855B857D858E850E94E406D0
:1015600017E08091EA019091EB0189133DC02E961E
:10157000E3E00C94F72187E0FE013896DE01119636
:1015800001900D928A95E1F78C85882349F320918B
:10159000EB0130E0C9010196877099274091EA017B
:1015A0004817190699F097E0929FD001939FB00DCC
:1015B0001124A451BE4FFE01319601900D929A95CF
:1015C000E1F78093EB010E945B08CACF0E94AD0651
:1015D0001092EB011092EA0187E0E4E2F2E0DF0111
:1015E0001D928A95E9F7BCCF819FC00111248451D7
:1015F0009E4F0E940809882309F4B9CFE091EA01BF
:101600001E9FF0011124E451FE4F2081318142815F
:1016100053816481758186810E94E4068091EA018C
:1016200090E00196877099278093EA019ACF809184
:10163000530286958695869508958091530287700A
:10164000089590915302977081E009F480E0089525
:1016500080917F02089590917F02892B80937F0271
:101660000895809590917F02982390937F0208952A
:1016700010927F02089590917E02892B80937E02C2
:101680000895809590917E02982390937E0208950C
:1016900010927E02089508950E944B0B0895909138
:1016A0005402292F282331F08095892380935402F6
:1016B0000E944C0B089508950E945B0B0895909131
:1016C0005502292F2823281729F0982B909355028B
:1016D0000E945C0B089590915502292F282331F028
:1016E00080958923809355020E945C0B0895809118
:1016F0005502882329F01092550280E00E945C0B6D
:101700000895CF93C0917F0280917E02C82B809173
:101710005502882331F0C82B0E94031781110E94C3
:10172000770B8C2FCF910895CF93DF93C091020157
:10173000D09103010E94810B8883C0910201D09156
:10174000030148E050E06BE472E0CE010E94032206
:10175000892B59F088E0FE01ABE4B2E001900D92D4
:101760008A95E1F7CE010E94A016DF91CF910895EE
:10177000CF93DF93C0910001D09101010E94810BB2
:101780008983C0910001D091010140E250E06BE2F9
:1017900072E0CE010E940322892B59F080E2FE0103
:1017A000ABE2B2E001900D928A95E1F7CE010E9482
:1017B000AB16DF91CF9108950E944818813039F41B
:1017C0008091D20287FF03C00E94B80B08950E9447
:1017D000940B089508950E94EA0B08959091D30206
:1017E00092FF11C098E0899F90011124622B6093B1
:1017F00053020E94360780915302869586958695FE
:101800000E94EB0B08950E94360708951092530230
:1018100080E00E94EB0B08959091530280958923FC
:1018200080935302282F277069F4891759F09091FB
:10183000D30292FF07C08695869586950E9446073B
:101840000E94060C08959091D30292FB222720F962
:10185000281769F080FB92F99093D3028091D2020D
:101860009091D3020E94720C82E00E940C0C0895A9
:101870008091D30282FB882780F991E089270E941A
:10188000230C089581E00E94230C089580E00E94BB
:10189000230C08956FEF7FEF90E080E00E945522C7
:1018A000089590E080E00E94212221E0853E9E4F35
:1018B00009F020E0822F089582E090E00E94192232
:1018C000089583E090E00E94192290E00895682F27
:1018D00083E090E00E943722089584E090E00E9427
:1018E00021220895BC0184E090E00E9455220895D1
:1018F000AB01BC018FE090E00E9449220895AB014A
:10190000BC0183E190E00E944922089560E070E00C
:10191000CB010E947F0C089560E070E0CB010E9433
:10192000780C0E94860C0895A8E0B0E0EAE9FCE09B
:101930000C94DC2165EE7EEF90E080E00E94552261
:1019400060E082E090E00E94372281E090E0909396
:10195000E9018093E8010E94670C60E074E184E093
:1019600090E00E94552260E086E090E00E943722DD
:1019700060E087E090E00E94372240E050E0BA014A
:1019800088E090E00E94492260E083E290E00E94BB
:10199000372260E08CE090E00E94372260E08DE02A
:1019A00090E00E94372219821A821B821C821D82BB
:1019B0001E821F82188648E050E067E170E0CE0189
:1019C00001960E94272240E050E0BA018FE190E0AA
:1019D0000E9449220E948C0C2896E2E00C94F82187
:1019E0000E94940C0895682F8EE090E00E943722A8
:1019F0000895A6E0B0E0EFEFFCE00C94DA210E943D
:101A0000F0188C01809180029091810280179107DB
:101A100081F019821A820E94F018682F49815A8138
:101A2000792F80E090E00E942E03109381020093B2
:101A300080022696E4E00C94F6210E942C1060931C
:101A40009202709393028093940290939502609314
:101A50008E0270938F02809390029093910208956A
:101A6000089508950E94300D089508950E94350D3F
:101A7000089581E0089586E490E10E9410140E9488
:101A8000310D0E94320D08950E940F12089508959D
:101A900008950E94470D0E94480D08950E94510C20
:101AA000811102C00E94F00C0E945C0C809396028F
:101AB0000E946D0C9093D3028093D2020E94610C1D
:101AC0000E94FA068091E6019091E7010E941B07AF
:101AD00008950E94E7180E9406100E9415120E94A5
:101AE00066110E944E0D0E9408030E94BE140E94BF
:101AF00027120E94360D0895A6E0B0E0E2E8FDE06E
:101B00000C94D3210E94390D81110AC00E94F90C56
:101B10000E940F120E9415032696EBE00C94EF2111
:101B20000E94891182E8A82E82E0B82E750110E08B
:101B3000F70101917F01812F0E9462101F5F1C300D
:101B400009F441C00817A1F38091960281FD0E941B
:101B500068100E94440DC82E10E099249394812FA0
:101B60000E946210082FF50181915F01081729F189
:101B7000F12CEE24E394D02ED8268D2D8E21A9F0C1
:101B8000CC2099F0F9821A830E94F0189C838B83F1
:101B90009D8291E0802F8E2109F490E049815A8145
:101BA0006B817C818D810E942E03F394EE0CF8E012
:101BB000FF12E3CFF501319700831F5F1C3079F6E8
:101BC0000E941D0DA5CF0813BFCFA0CF1F93CF93A9
:101BD000DF930E94150FEC01C11580E5D807F0F5E1
:101BE000C11580E4D80708F09CC0C03ED10520F59F
:101BF000CD3CD10508F082C0C83AD10578F4C53A89
:101C0000D10508F073C0C130D10519F1209709F151
:101C1000C430D105F0F4D0E0C0E01BC0C33CD10516
:101C2000D0F7C85AD0E0CC0FDD1FCC59DE4F099059
:101C3000D881C02DD4640DC0C11580E2D80708F04A
:101C4000D1C0C11581E0D80708F05AC0C83ED105FF
:101C500010F7CE01DF91CF911F910895C03682E534
:101C6000D80718F5C03482E5D80708F06BC0C03239
:101C700082E5D80708F05FC0C11582E5D80708F4EF
:101C800097C02C2F2695269580E2289F900111243D
:101C90008C2F8370C1E0D0E002C0CC0FDD1F8A958D
:101CA000E2F7C22BD32BDD68D4CFC03A82E5D80748
:101CB00060F4C03882E5D80708F459C0CF71D0E08D
:101CC000DC2FCC27C46FD06AC4CFC03C82E5D807D4
:101CD00008F462C0C03E82E5D80708F09CCFDC2F34
:101CE000CC27CC27DF71C06FD06AB3CFC55AD0E004
:101CF000C656DE4FC881D0E0D064ABCFD065A9CF47
:101D00008D2F0E94B70F182FCE0199270E94150F13
:101D1000C12FD0E0DC2FCC27CC27DF71C82BD92BEB
:101D200098CFCE0199270E94150FCC27DF70C82BC2
:101D3000D92BD06A8ECFCF71D0E0DC2FCC27C16FEA
:101D4000D06A87CF2C2F26952695277080E2289F72
:101D5000900111248C2F8370C1E0D0E002C0CC0F21
:101D6000DD1F8A95E2F7C22BD32BDC6872CF2C2FB4
:101D700026952695277080E2289F900111248C2FAC
:101D80008370C1E0D0E002C0CC0FDD1F8A95E2F77E
:101D9000C22BD32BDA685DCF8C2F8F710E94B70FC7
:101DA000C82FD0E0DC2FCC27CC27DF71D06251CFF9
:101DB0008C2F8F710E94B70F55E0D695C7955A9515
:101DC000E1F7CF70D0E0DC2FCC27282F30E084FF64
:101DD00005C044E0220F331F4A95E1F7C22BD32BF5
:101DE000D06937CF8D2F8F710E94B70F182FCE017A
:101DF00099270E94150FC12FD0E0DC2FCC27CC27CC
:101E0000DF71C82BD92BD2CF462F7C3030F468300D
:101E100020F4672F0E94EB01089590E080E0089580
:101E20000E94040F0E94E60D089582389105B9F1D1
:101E3000B0F48133910509F47DC048F489329105ED
:101E400009F46DC08A32910509F47BC00895853389
:101E5000910509F45FC08933910509F10895833E26
:101E60009105D9F138F4803E910529F1823E910522
:101E700079F10895863E9105D9F1873E910509F4DF
:101E80003EC0843E910541F52091D30221FF24C03C
:101E90008091D20284FD19C087EE90E008952091D0
:101EA000D202237009F05AC02091D30223FF14C03C
:101EB00089E290E008952091D20220FD38C030914F
:101EC000D30230FF09C024FF43C090E080E00895B2
:101ED0002091D20222FDF7CF08952091D20222FD57
:101EE0003AC03091D30230FD39C024FFF5CFEDCF99
:101EF0002091D20223FFF0CF24FDE7CFCDCF209158
:101F0000D20223FD2EC03091D30231FFEECF84EEFA
:101F100090E008952091D20225FFDECFC9CF209115
:101F2000D20225FD21C02091D30223FFD5CF89E322
:101F300090E0D2CF2091D20226FFCECF8AE290E06D
:101F400008952091D20226FFC7CF81E390E0089543
:101F500083EE90E0089582EE90E0089580EE90E0A8
:101F6000089586EE90E0089585E390E008959091BD
:101F7000D20292FF10C041E0282F2471243009F0D2
:101F800040E031E0282F2871283009F030E0431775
:101F900011F02CE0822793FF10C041E0282F24711C
:101FA000243109F040E031E0282F2871283109F070
:101FB00030E0431711F02CE082273091D30230FF3C
:101FC00010C051E0282F2171213009F050E041E08C
:101FD000282F2871283009F040E0541711F029E02B
:101FE000822731FF10C041E0282F2171213109F0F3
:101FF00040E031E0282F2871283109F030E0431704
:1020000011F029E0822794FD877E08951092D40272
:102010001092D5021092D6021092D7020895CF9254
:10202000DF92EF92FF926B017C010E940F128111EF
:102030000EC00E94FC18C61AD70AE80AF90AC09214
:10204000D402D092D502E092D602F092D702FF904D
:10205000EF90DF90CF9008950F931F930E940F127F
:10206000882329F00E94FC181F910F9108950E9467
:10207000FC180091D4021091D5022091D602309123
:10208000D702600F711F821F931FEECF80E008956B
:10209000CF939C01205E3245C1E02032310538F4F7
:1020A000FB01C581C11103C08F710E945C028C2F9E
:1020B000CF91089508950E945A10089508950E949E
:1020C0005E100895E82FF0E0EB51FD4F80810895F8
:1020D000089580EA8A95F1F7089500C008950E9456
:1020E0006910089508950E9472100895A6E0B0E066
:1020F000ECE7F0E10C94D8210E940F12F82E6091C9
:10210000F102882309F440C086E0E82E8E010F5FBB
:102110001F4FF8018E2D11928A95E9F7862F90E0D6
:10212000B8018B519D4F0E9435128823B9F08091E0
:10213000D80290E046E050E0B8018B519D4F0E94DC
:10214000032221E020939702892B91F4F12C0E9425
:102150005F108F2D2696E6E00C94F4218091970273
:102160008823A1F3F8011192EA94E9F710929702FB
:10217000A091D802B0E0AB51BD4F86E0F8010190CC
:102180000D928A95E1F7E3CF70E06B517D4F80911E
:10219000D80290E08B519D4F0E94BC120E94731098
:1021A000D8CFF894E82FE295EF70F0E031A1282F16
:1021B0002F7081E090E001C0880F2A95EAF7982FF0
:1021C0009095932391A392A1892B82A3789408954B
:1021D0000F931F93CF93DF93C5EAD1E089918F3F8F
:1021E00011F00E94D11081E0CB3AD807B9F7CDE9C0
:1021F000D1E005EA11E089918F3F11F00E94D110E2
:102200000C171D07C1F7DF91CF911F910F91089512
:10221000B0E0A0E0EEE0F1E10C94D621EC01D62E86
:10222000062F10E0C8018B559E4F7C01FC01808178
:102230008F3F09F444C0F894E82FE295EF70F0E086
:1022400091A18F7021E030E001C0220F8A95EAF75A
:10225000892F822B81A382A12095282322A3789401
:102260000E946D10EDE9F1E031E0C12C21912F3F8A
:1022700059F1A22FA295AF70B0E090968C9190E0AA
:102280002F7002C0959587952A95E2F780FD1CC0B6
:10229000832FC82A330F81E0E53AF80739F7F701B1
:1022A00080818F3F11F00E94D11061E0C11001C008
:1022B00060E08D2D0E946F10C00FD11FC882CDB776
:1022C000DEB7E8E00C94F22180E0E3CF80910401D6
:1022D0008091040196E0811190E09093F10286E0F4
:1022E000891B8093D8020E94E8108CE0E5EEF2E0B2
:1022F000DF01982F1D929A95E9F7E9EDF2E0DF01F1
:102300001D928A95E9F786E00E94C7110E945B1032
:102310000895ACE0B0E0EFE8F1E10C94D9218E0132
:102320000F5F1F4F8CE0F80111928A95E9F7F12CAD
:102330006F2DC8010E940811F394F6E0FF12F8CF48
:102340004CE050E0B80189ED92E00E94032221E0C8
:10235000009709F420E0892B41F08CE0F801A9ED09
:10236000B2E001900D928A95E1F76091F10270E080
:102370006B517D4F46E089ED92E00E94C811182F05
:102380000E947610812B2C96E5E00C94F52108959F
:10239000B0E0A0E0EEECF1E10C94D6216C017B0101
:1023A000042FC22F222379F081E080939A020E94A9
:1023B000F018909399028093980280E0CDB7DEB731
:1023C000E8E00C94F221D0919A02DD23B1F38091E0
:1023D0009802909199020E940819059770F310E0F5
:1023E000A801B601C7010E940322892B31F0A80180
:1023F000B601C7010E941022CD2F10929A028C2F95
:10240000DDCFCF930E94B921C82F811102C00E9455
:10241000B4218C2FCF91089580919E0208958091D0
:102420009D0208950E940F1208950E940112809348
:102430009D020E94121280939E020E940C128093B1
:1024400004010E940F1281110E946B1208950E94D4
:102450000F12811102C00E946E12089581E09091C6
:102460009F029A3008F080E008950F931F93CF9356
:10247000DF93EC018B0180919F028A30B8F4B801A0
:10248000CE010E94B912C82F811122C080919F02F3
:102490008F3FB9F40E94F01890939C0280939B02A6
:1024A0008C2FDF91CF911F910F91089580919B0206
:1024B00090919C020E940819843F914000F7C0E06F
:1024C000EFCF8F5F80939F028A3020F7C1E0E8CF83
:1024D00010929F02E5CF0E94CB1908950E94CE1959
:1024E0000895B0E0A0E0E7E7F2E10C94D72179018C
:1024F000C82F880FDD0B41155105A9F0FE0193E0AF
:10250000EE0FFF1F9A95E1F7EB5FFE4F81819281FD
:1025100080569D4F208130E04217530708F49A01FE
:10252000A9010E941022CE010E94B71AD82E88233A
:10253000D1F001151105B9F083E0CC0FDD1F8A95AC
:10254000E1F7FE01EB5FFE4F438150E004171507F2
:1025500008F4A801CB5FDE4F6C817D8160567D4F12
:10256000C7010E9410228D2DCDB7DEB7E7E00C9495
:10257000F3210E94AB1308950E94C2130895A4E0B2
:10258000B0E0E5ECF2E10C94DA216091B9027091CF
:10259000BA028091BB029091BC020E94171911E00F
:1025A000643671058105910518F10E942C106E5F4B
:1025B0007F4F8F4F9F4F69837A838B839C8310E07B
:1025C00000E030E020E044E050E0BE016F5F7F4F6C
:1025D00082E00E947112182F882351F00E94FC188B
:1025E0006093B9027093BA028093BB029093BC02CD
:1025F000812F2496E4E00C94F621B0E0A0E0E3E023
:10260000F3E10C94D4217C015B016A010E942E123B
:1026100001E010E0882311F00AE010E0C1E0D0E012
:10262000B501C701F6010995811104C021960C1767
:102630001D072CF4CDB7DEB7EAE00C94F021CC9F57
:102640009001CD9F300D300D112490E080E045E3E6
:102650004A95F1F70000019682179307C1F7E0CF82
:10266000A7E0B0E0E6E3F3E10C94D4217B01C09055
:10267000AB01D090AC0101E010E09E01295F3F4F1B
:1026800050E040E070E060E080E00E947112182F9E
:10269000882309F448C056018FEFA81AB80A609140
:1026A000B5027091B6028091B7029091B8020E9473
:1026B0001719643671058105910568F106E010E08F
:1026C0009E012F5F3F4F50E040E070E060E081E00E
:1026D0000E947112D82E66E070E0C5010E94BF14FE
:1026E00011E09F81981310E01D2141F10E94FC1818
:1026F0006093B5027093B6028093B7029093B802CC
:1027000086E0FE013196AFEAB2E001900D928A9523
:10271000E1F711E013C066E070E0C5010E94BF144C
:102720009F818913CBCF86E0F6013196DE011196A9
:1027300001900D928A95E1F71111E2CF86E0EFEA60
:10274000F2E0D70101900D928A95E1F7812F27964B
:10275000EAE00C94F0210F931F93CF93DF93EC01E9
:102760008B0140E353E10E94FD12882331F04FEBCF
:1027700052E1B801CE010E94FD12DF91CF911F916D
:102780000F9108950F931F93CF93DF93C091AB01E7
:10279000D091AC01CE01019626E0FB01DC01019055
:1027A0000D922A95E1F766E070E00E94BF148883DD
:1027B0006F81788589859A850091AB021091AC0272
:1027C0002091AD023091AE02601771078207930726
:1027D00051F06093AB027093AC028093AD02909382
:1027E000AE020E940F10DF91CF911F910F910895BB
:1027F0000E947C0D08950E9489180E94701C0E94FE
:102800003B0D0E948A1C0E94690D0E94971C0E9429
:102810009C1C0E94F8130E94B61C0E94490DF7CF21
:102820009093AF018093AE010895EBEFE80FEF3383
:1028300008F066C0F0E0E758FD4D0C94C6210E94F8
:10284000F00C81E0089580919602807F809396023B
:1028500081E08093BD0208950E948402F2CF90919E
:102860009602892F8E7F90FF81608093960280FD73
:10287000E8CF817F80939602E4CF90919602892FD2
:102880008D7F91FF82608093960281FFDACF8091E5
:1028900096028160EFCF90919602892F8B7F92FFF5
:1028A00084608093960282FDF2CFCBCF9091960206
:1028B000892F877F93FF88608093960283FDE7CFFF
:1028C000C0CF0E94AD069091D202892F97FB87F965
:1028D00080588093D202B5CF81E090E00E94FA0642
:1028E0000E94AD06AECF895321E030E0A90102C0BD
:1028F000440F551F8A95E2F7CA01F0CF8D51F4CFEE
:1029000080E0089580E008950E9482140895CF9396
:10291000C82F8091BD02882331F0813099F0109248
:10292000BD0280E00DC00E94280B8232D1F78C2FAF
:102930000E948214811116C08C2F0E941514817080
:10294000CF9108950E94280B823289F38C2F0E9428
:102950008414811105C0C43171F038F4CB3079F79B
:1029600081E0EDCF81E090E0EACFC93221F0C833B9
:10297000B9F380E0E4CF1092BD02FBCF0895FC01D3
:10298000680F791F8FEF91E3E617F70709F40895B1
:102990002191822728E030E087FF06C0880F892731
:1029A00021503109C9F7F0CF880FFACFCF93DF93C9
:1029B000EB0186319C4711F50E94280B9D819923DC
:1029C00099F08A7A91E009F490E09093BE02811127
:1029D00009C089E20E94B1170E94DC0B80E0DF9100
:1029E000CF91089585E3F6CF8091BE02811104C096
:1029F00089E20E94CB17F0CF85E3FBCF81E0EFCFD8
:102A0000CF93DF93EC01FB018581882309F4D2C0C9
:102A10009E0130572332310508F0B2C00E946D0C80
:102A20009093D3028093D202FE01E150F047E2324C
:102A3000F10520F4E854FD4D0C94C6218091D2029A
:102A400081608093D20293C08091D302886080938A
:102A5000D3028DC08091D2028260F3CF8091D202E6
:102A60008460EFCF8091D2028860EBCF8091D30257
:102A70008160EDCF8091D3028260E9CF8091D20254
:102A80008061DFCF8091D2028062DBCF8091D20261
:102A90008064D7CF0E94AD068091D2028068D1CFEA
:102AA0008091D2028C60CDCF8091D3028360CFCF52
:102AB0008091D2028E7FC5CF8091D302877FC7CF0E
:102AC0008091D2028D7FBDCF8091D2028B7FB9CF12
:102AD0008091D202877FB5CF8091D3028E7FB7CF0E
:102AE0008091D3028D7FB3CF8091D2028F7EA9CF08
:102AF0008091D2028F7DA5CF8091D2028F7BA1CF12
:102B00000E94AD068091D2028F779BCF8091D20236
:102B1000837F97CF8091D3028C7F99CF8091D2020F
:102B200082FB992790F921E0922790FB82F990FB94
:102B300083F987CF8091D302982F909591708E7FE3
:102B4000892B90FB81F983CF9091D202892F8F7BC3
:102B500096FF806476CF0E94AD069091D202892FB5
:102B600097FB87F980586DCF81E00E94F30C80912C
:102B7000D2029091D3020E94720C0E94AD0680E0B6
:102B8000DF91CF91089580E0F0CF9091D202892F0C
:102B90008F7E94FF806155CF9091D202892F8E7FD6
:102BA00090FF81604ECF9091D302892F877F93FF52
:102BB00088604DCF81E0E4CF0F931F93CF93DF93D5
:102BC000C42FD22FFC0185818823C9F04093C10214
:102BD0000E94F0189093C0028093BF0280E28C0F95
:102BE000883040F4C77081E001C0880FCA95EAF7C9
:102BF0000E946304DF91CF911F910F91089510916E
:102C0000C102141332C08091BF029091C0020E9491
:102C100008198436910548F5C0E2CD0F1D17B9F0AB
:102C200080E2810F883040F4177081E001C0880F86
:102C30001A95EAF70E946A04C83048F481E09D2F93
:102C4000977001C0880F9A95EAF70E946304802F5D
:102C50000E945A04C83070F6D77081E001C0880F16
:102C6000DA95EAF70E946A04C5CF80E28C0F8830BB
:102C700008F6C77081E001C0880FCA95EAF7F2CF65
:102C80000F93DB0188519C4787309105A0F5FC012B
:102C9000E652FD4D0C94C62106E221EE41EE6AE1BA
:102CA0007CE7CD010E94DC1580E00F91089507E2DA
:102CB00025EE45EE6BE17CE7F4CF06E221EE40EE37
:102CC00068E17CE7EECF07E225EE44EE69E17CE7C0
:102CD000E8CF06E221EE42EE6CE17CE7E2CF07E2CC
:102CE00025EE46EE6DE17CE7DCCF08E221E045EE23
:102CF0006EE17CE7D6CF15968C91882319F010925F
:102D0000C102D3CF81E0D1CF9093C8028093C70294
:102D100008950E940F12811103C08091C20208958C
:102D2000E091C702F091C802309729F00190F0813C
:102D3000E02D0995089580E008950E948916089570
:102D4000E091C702F091C802309721F00280F38130
:102D5000E02D09950895E091C702F091C8023097DF
:102D600039F026E0DC012C930480F581E02D0995F3
:102D70000895A3E0B0E0EFEBF6E10C94DC212091A4
:102D8000C5023091C60228173907A1F09093C602F8
:102D90008093C502E091C702F091C802309751F0CC
:102DA00023E029839B838A830084F185E02DCE0173
:102DB000019609952396E2E00C94F821A3E0B0E097
:102DC000E4EEF6E10C94DC212091C3023091C402C0
:102DD00028173907A1F09093C4028093C302E091B1
:102DE000C702F091C802309751F024E029839B83F9
:102DF0008A830084F185E02DCE0101960995239602
:102E0000E2E00C94F821CF93DF93C0910201D091BE
:102E1000030122960E944818813081F48091D202E9
:102E200087FF0CC0C0910001D091010122969EE164
:102E300080E0915028F4DF91CF91089596E0F8CF8B
:102E400029912223B1F38F5FF4CFCF93C82F811143
:102E500002C080E024C00E944818813011F58091A2
:102E6000D20287FF1EC0EC2FE695E695E695EE317F
:102E700080F78091000190910101E80FF92FF11D79
:102E8000228130E0C77081E090E002C0880F991F76
:102E9000CA95E2F72823392381E0232BD1F2CF9181
:102EA00008958091020190910301FC0132960896E9
:102EB00021912C1721F0E817F907D1F7CACF81E04B
:102EC000EECF9C01FC0132969FEF80E041914617C6
:102ED00051F09F3F19F4411101C0982F8F5F863048
:102EE000A9F79F3F09F40895290F311D97FD3A95E1
:102EF000F90162830895FC01329608962191261308
:102F000003C0DF0111971C92E817F907B9F708957C
:102F1000E62FE695E695E695EE3168F4E80FF92F91
:102F2000F11D677021E030E001C0220F6A95EAF7D9
:102F30008281822B82830895E62FE695E695E695B9
:102F4000EE3170F4E80FF92FF11D677021E030E0E9
:102F500001C0220F6A95EAF72095828128232283F7
:102F60000895CF93C82F0E9448186C2F813061F4C8
:102F70008091D20287FF08C08091000190910101E9
:102F80000E948817CF9108958091020190910301CA
:102F90000E946117F7CFCF93C82F0E9448186C2F5B
:102FA000813061F48091D20287FF08C080910001D6
:102FB000909101010E949C17CF9108958091020188
:102FC000909103010E947B17F7CF0E94481881302F
:102FD00079F48091D20287FF0BC0E0910001F0915B
:102FE000010132968EE1DF011D928A95E9F708957D
:102FF000E0910201F0910301329686E0F4CF08954A
:103000000E94FF17089581110EC081E08093200176
:1030100060911D0170911E0180911F01909120010E
:103020000E940018089582E0F1CF83E08093200190
:1030300060911D0170911E0180911F0190912001EE
:103040000E94001808950E940318089581E080935B
:10305000200160911D0170911E0180911F019091CE
:1030600020010E94001808950E942618089591E0FA
:10307000811101C090E090931F0160911D0170913A
:103080001E0180911F01909120010E940018089557
:1030900080911F01089580931E0160911D01709120
:1030A0001E0180911F01909120010E940018089537
:1030B00080911E01089580931D0160911D01709102
:1030C0001E0180911F01909120010E940018089517
:1030D00080911D010895089508950E946C18089527
:1030E000089508950E946B180895CF930E94701858
:1030F0000E9489110E947118C0E08C2F0E946210FA
:10310000811105C0CF5FCC30C1F7CF91089581E028
:10311000FCCF85B7806885BF85B7806885BF089577
:103120001F921FB61F9211248F939F93AF93BF934B
:103130008091C902811113C08091F2029091F30233
:10314000A091F402B091F5024196A11DB11D8093AA
:10315000F2029093F302A093F402B093F502BF91B0
:10316000AF919F918F911F901FBE1F9018958091D6
:10317000FA02843031F10E94EC021092C90288E117
:1031800090E020E40FB6F894A895809360000FBEFD
:103190002093600083B7817F846083BF83B78160A1
:1031A00083BF7894889583B78E7F83BF0FB6F894DA
:1031B000A895809160008861809360001092600003
:1031C0000FBE08950E94AD060E94F102089582E0AC
:1031D00084BD93E095BD9AEF97BD80936E000895EE
:1031E0002FB7F8948091F2029091F302A091F4022B
:1031F000B091F5022FBF08952FB7F8946091F202B5
:103200007091F3028091F4029091F5022FBF08951E
:103210009C014FB7F8948091F2029091F302A09133
:10322000F402B091F5024FBF821B930B0895CF9229
:10323000DF92EF92FF922FB7F894C090F202D090F5
:10324000F302E090F402F090F5022FBFA70196017F
:10325000261B370B480B590BCA01B901FF90EF90A1
:10326000DF90CF90089578941F921FB61F9211247B
:103270008F939F93AF93BF938091F2029091F3024B
:10328000A091F402B091F5020196A11DB11D8093A9
:10329000F2029093F302A093F402B093F502BF916F
:1032A000AF919F918F911F901FBE1F90189587E738
:1032B00097E7909301088093000888E19AE00FB6A1
:1032C000F894A895809360000FBE90936000FFCFA4
:1032D00088E19AE00FB6F894A895809360000FBE3D
:1032E00090936000FFCF8EE1489B02C08150E1F7D0
:1032F000489BFECF0895589880E28A95F1F7589A36
:103300000895FC013BE03A95F1F798E020E080E079
:1033100031E040E14A95F1F7880F489B02C0816097
:10332000232742E04A95F1F7000040E14A95F1F782
:10333000915079F790E19A95F1F799B132E03A9589
:10334000F1F7000040E14A95F1F791709227208152
:10335000920F90830895A1E0B0E0E1EBF9E10C94C5
:10336000D82119828C017C01E60EF11C0E151F0577
:1033700041F481E09981911180E02196E6E00C947E
:10338000F4210E947319CE0101960E948119F8015F
:1033900081938F01EBCF509A589A08955098589A7C
:1033A000E89AE9E6F0E080818C7F8083089561509F
:1033B000770B91E001C0990F6A95EAF720E031E0C0
:1033C000911108C0222391F0589A80E28A95F1F772
:1033D00058980895492F482339F0589A232740E2F6
:1033E0004A95F1F79695ECCF5898F9CF5898EDCFCC
:1033F000FF920F931F93CF93DF93EC018C01060F85
:10340000111DC017D10729F4CDB7DEB7E5E00C9444
:10341000F521F9900E947B1968E08F2D0E94D71941
:10342000F0CF1F920F920FB60F9211240F931F939C
:103430002F933F934F935F936F937F938F939F93BC
:10344000AF93BF93EF93FF93CF93DF930F92CDB7DB
:10345000DEB719820E947319CE0101960E9481196C
:10346000082F069506950695282F22952570902FF2
:103470009570290F922F937026952695920F982775
:1034800097708981982B09F05CC0043008F059C00E
:1034900080E18A95F1F7589A509A82E08A95F1F77F
:1034A00000C0589888E0089F80011124D801AB5FC4
:1034B000BE4F1696ED91FC9117973097A9F0609149
:1034C000AB017091AC0114962D913C911597260F8C
:1034D000371F11968D919C911297680F791F139643
:1034E0004C9113978C910995F801EB5FFE4F638126
:1034F000662351F02091AB013091AC01848195811C
:10350000820F931F0E94F8190E947B1980E18A950F
:10351000F1F758985098589A80E18A95F1F7F80198
:10352000EB5FFE4F6081662351F02091AB0130913B
:10353000AC0181819281820F931F0E94AB190E947E
:1035400073190F90DF91CF91FF91EF91BF91AF91E0
:103550009F918F917F916F915F914F913F912F91AB
:103560001F910F910F900FBE0F901F9018950F9302
:103570001F93CF93DF93EC0104970CF04CC0F894A9
:10358000509A589885E08A95F1F700009C2F9695FF
:1035900095708C2F8570980F892F837096959695CE
:1035A00023E0CC0FDD1F2A95E1F7980F8E01092B40
:1035B0000E947B1900C068E0802F0E94D71980E12B
:1035C0008A95F1F75098589A489B1EC087E090E082
:1035D00048991CC0FE01EB5FFE4F63816623F9F042
:1035E0002091AB013091AC0184819581820F931FB2
:1035F0000E94AB19811113C0509A589A7894DF91A8
:10360000CF911F910F91089500C0DECF019729F44B
:10361000509A589A789480E0F2CF00C0D9CF0E9497
:10362000731980E28A95F1F75898509A80E18A954B
:10363000F1F7CB5FDE4F6881662351F02091AB013B
:103640003091AC0189819A81820F931F0E94F819F1
:103650000E947B19789481E0D2CF08959B01BA0132
:103660009091FA029430E9F48F708093E9009FEF13
:103670008091E800915085FD06C085ED8A95F1F7AF
:1036800000009111F5CF8091E80085FF0AC050E05D
:1036900040E0C9010E942D1D8091E8008E77809343
:1036A000E800089543E050E0BC0182E00E942E1B38
:1036B000089540E250E0BC0182E00E942E1B089574
:1036C000CF93DF93EC010E94481848E050E0BE0120
:1036D00081E00E942E1B88E0FE01AAECB2E001907E
:1036E0000D928A95E1F7DF91CF9108958091F902CB
:1036F000811109C00E94BD1E0E941A1F8091E20024
:1037000084608093E20008951092F90208950E9467
:10371000261881E00E94371808956091F60281E032
:10372000611101C080E00E94151808959091FA027D
:1037300081E0943009F080E06091F6020E94231845
:10374000089542E061EC81E00E94391E42E261ECA2
:1037500082E00E94391E9091FA0281E0943009F0D3
:1037600080E06091F6020E94031808958091FC02A7
:10377000833009F461C030F48130D1F1823009F432
:103780009EC008958A3009F48AC08B3009F46FC056
:10379000893009F050C08091FB02813209F04BC0A2
:1037A0008091FF0290910003029708F044C080913D
:1037B000E800877F8093E8008091E80082FF37C0AF
:1037C0009091F3008091F200029731F48091F10022
:1037D000813011F0863021F48091F1000E944B1865
:1037E0008091E8008B778093E8000E946D1E23C0D3
:1037F0008091FB02813AF9F48091E800877F809301
:10380000E8008091FF0290910003892B61F468E049
:103810008AEC92E070E00E947C1D8091E8008B773A
:103820008093E800089560E090E080E0F3CF80911D
:10383000FA028111C1CF08958091FB02813AD9F734
:103840008091FF0290910003892BA9F78091E800F5
:10385000877F8093E8008091E80080FFFCCF0E9482
:1038600048188093F1008091E8008E77BCCF80915A
:10387000FB02813201F78091FF0290910003892BB6
:10388000D1F68091E800877F8093E8000E946D1E4A
:103890008091FD020E9437180E94AD060895809124
:1038A000FB02813241F68091E800877F8093E80037
:1038B0000E946D1E8091FE020E945B180895809107
:1038C000FB02813A09F0B7CF8091E800877F8093AF
:1038D000E8008091E80080FFFCCF0E946818C1CF0B
:1038E00084B7877F84BF0FB6F894A8958091600055
:1038F000886180936000109260000FBE80E890E0C5
:103900000FB6F89480936100909361000FBE0E94FF
:10391000341808950E94BD1E0E941A1FE2EEF0E0C6
:1039200080818460808378940E949921089581E247
:1039300091E00E94841608958091FA02853031F456
:103940008091FA02853019F00E94E21808950E94D1
:10395000B7180E947518882399F38091F80288237C
:1039600079F30E94171D0E94AD06EACF08959A01CF
:1039700040910103509102030E94BF1C0895492FFA
:1039800055274330510519F168F44130510509F4C8
:1039900044C04230510509F445C090E080E050E059
:1039A00040E025C04132510549F142325105A9F7A5
:1039B00084E490E048E153E061157105C1F08DE6C3
:1039C00090E04BEA52E06130710589F0E6CF99272B
:1039D0008130910581F0009729F00297F1F6ECE231
:1039E000F2E002C0EAE5F2E0849190E0AF01F90173
:1039F000518340830895ECE3F2E0F6CF89E090E054
:103A000040E752E06115710591F389E090E049E8E3
:103A100052E06130710559F3C0CF82E190E049E98D
:103A200052E0E5CF8BE390E04EE552E0E0CF80E15D
:103A300089BD82E189BD09B400FEFDCF8091D80027
:103A40008F7D8093D8008091E00082608093E000B9
:103A50008091E00081FDFCCF0895AF92BF92CF929C
:103A6000DF92FF920F931F93CF93DF936C01EB01D3
:103A70008A010E948C1EF82E811123C001151105A8
:103A800039F0F80180819181C81BD90BC80ED91E6D
:103A9000B12CA12C2097A9F08091E80085FD22C0CF
:103AA0008091E8008E778093E80001151105A1F060
:103AB000F80180819181A80EB91EB182A08285E0B3
:103AC000F82E8F2DDF91CF911F910F91FF90DF90F6
:103AD000CF90BF90AF9008950E948C1E8823D1F2A2
:103AE000F82EEFCFF60181916F018093F1002197BD
:103AF000FFEFAF1ABF0ACECFFC0180910103909176
:103B0000020386179707A0F06115710529F49091BB
:103B1000E8009E779093E80090E06115710551F4FC
:103B2000911108C08091E80082FF34C080E00895C0
:103B3000BC01F2CF8091FA028823C1F18530C1F136
:103B40008091E80083FD30C08091E80082FDEACFDB
:103B50008091E80080FFE1CF8091F3002091F20096
:103B6000382F6115710519F02830310558F091E0B2
:103B70002830310509F090E02091E8002E7720935D
:103B8000E800CBCF81918093F100615071092F5FE4
:103B90003F4FE7CF8091FA02882341F0853041F012
:103BA0008091E80083FFBECF81E0089582E0089510
:103BB00083E00895FC018091010390910203861730
:103BC0009707A0F06115710529F48091E8008E77C0
:103BD0008093E80090E06115710551F4911108C0DF
:103BE0008091E80082FF35C080E00895BC01F2CFEB
:103BF0008091FA028823C9F18530C9F18091E800EB
:103C000083FD31C08091E80082FDEACF8091E80019
:103C100080FFE1CF8091F3002091F200382F6115F1
:103C2000710519F02830310558F091E02830310540
:103C300009F090E08091E8008E778093E800CBCF88
:103C400084918093F1003196615071092F5F3F4F4D
:103C5000E6CF8091FA02882341F0853041F08091CF
:103C6000E80083FFBDCF81E0089582E0089583E0FE
:103C70000895982F973028F08F708093E90081E0A5
:103C800008959093E900242F762F50E0981731F093
:103C90007091EC002091ED005091F00021FD02C0E8
:103CA0009F5FE8CF3091EB003E7F3093EB00309187
:103CB000ED003D7F3093ED003091EB0031603093AB
:103CC000EB007093EC002093ED005093F0002091F6
:103CD000EE0027FDE5CF80E008958091FB0287FF8D
:103CE00013C08091E80082FF06C08091E8008B77C6
:103CF0008093E80004C08091FA028111F2CF089508
:103D00008091FA028823D9F38091E80080FFF8CFF0
:103D10008091E8008E77ECCF2091E4003091E500AF
:103D200095E6A9012091EC00822F817020FF06C04A
:103D30008091E80080FF06C080E008952091E800AF
:103D400022FD1AC08091FA02882389F0853089F01B
:103D50008091EB0085FD0FC02091E4003091E500DB
:103D600042175307F9F29150E1F684E0089582E09A
:103D7000089583E0089581E008950E942C1F0E9419
:103D8000341FE0EEF0E0808181608083E8EDF0E0B8
:103D900080818F77808319BCA7EDB0E08C918E7FF6
:103DA0008C9380818F7E80831092F90208950F9307
:103DB0001F93CF93DF930E942C1F0E94341FC8EDE6
:103DC000D0E088818F778883888180688883888124
:103DD0008F7D888319BC1092FA021092F60210921D
:103DE000F8021092F70200EE10E0F80180818B7F5C
:103DF000808388818160888342E060E080E00E9467
:103E0000391EE1EEF0E080818E7F8083E2EEF0E00B
:103E1000808181608083808188608083F8018081D7
:103E20008E7F8083888180618883DF91CF911F910D
:103E30000F910895E8EDF0E080818F7E8083E7EDBB
:103E4000F0E080818160808384E082BF81E08093A4
:103E5000F9020E94D71E0895E8EDF0E080818E7F80
:103E600080831092E20008951092DA001092E1002F
:103E700008951F920F920FB60F9211242F933F9324
:103E80004F935F936F937F938F939F93AF93BF9362
:103E9000EF93FF938091E10082FF0BC08091E200DD
:103EA00082FF07C08091E1008B7F8093E1000E9438
:103EB00098218091DA0080FF19C08091D80080FF9E
:103EC00015C08091DA008E7F8093DA008091D9004E
:103ED00080FF96C080E189BD82E189BD09B400FE02
:103EE000FDCF81E08093FA020E94761B8091E10071
:103EF00080FF19C08091E20080FF15C08091E20030
:103F00008E7F8093E2008091E20080618093E200E6
:103F10008091D80080628093D80019BC85E080939E
:103F2000FA020E948D1B8091E10084FF2BC08091DA
:103F3000E20084FF27C080E189BD82E189BD89B5A7
:103F4000982F917080FFFBCF8091D8008F7D809358
:103F5000D8008091E1008F7E8093E1008091E200A3
:103F60008F7E8093E2008091E20081608093E20086
:103F70008091F602882309F449C084E08093FA0214
:103F80000E94961B8091E10083FF29C08091E2008E
:103F900083FF25C08091E100877F8093E10082E06C
:103FA0008093FA021092F6028091E1008E7F809356
:103FB000E1008091E2008E7F8093E2008091E20038
:103FC00080618093E20042E060E080E00E94391E60
:103FD0008091F00088608093F0000E94871BFF9121
:103FE000EF91BF91AF919F918F917F916F915F9171
:103FF0004F913F912F910F900FBE0F901F901895EA
:1040000019BC1092FA020E94841B70CF8091E300C9
:1040100087FD93E09093FA02B3CF1F920F920FB6F1
:104020000F9211242F933F934F935F936F937F933E
:104030008F939F93AF93BF93CF93DF93EF93FF93B0
:10404000D091E900DF708091EC00C82FC17080FD35
:10405000C0E81092E9008091F000877F8093F00023
:1040600078940E9451201092E9008091F0008860BD
:104070008093F000CD2BCF70C093E900FF91EF91BA
:10408000DF91CF91BF91AF919F918F917F916F9170
:104090005F914F913F912F910F900FBE0F901F9006
:1040A0001895AAE2B0E0E7E5F0E20C94DB218BEF93
:1040B00092E02091F100FC012193CF01F3E08330E5
:1040C0009F07B9F70E94B61B8091E80083FF1EC1CD
:1040D0008091FB029091FC029A3008F017C1E92F01
:1040E000F0E0EF51FD4D0C94C621803899F08238F4
:1040F00009F00CC18091FF028F70873008F006C173
:104100008093E9008091EB0085FB882780F910926D
:10411000E90006C08091F7029091F8029111826047
:104120009091E800977F9093E8008093F1001092BF
:10413000F1008091E8008E77E5C0882309F4D3C0B0
:10414000823009F0E3C08091FD028111D6C08091D8
:10415000FF028F702FEF280F263008F0D7C0809312
:10416000E9002091EB0020FFC8C0933031F480912A
:10417000EB0080628093EB00C0C09091EB009061F7
:104180009093EB0021E030E001C0220F8A95EAF71E
:104190002093EA001092EA008091EB008860EACF59
:1041A0008111B4C01091FD021F778091E3008078E7
:1041B000812B8093E3008091E800877F8093E80063
:1041C0000E946D1E8091E80080FFFCCF8091E3008B
:1041D00080688093E30082E0111183E08093FA020B
:1041E00095C08058823008F091C08091FD02909176
:1041F000FE028C3D23E09207A1F583E08A838AE2E8
:1042000089834FB7F894DE01139620E03EE051E237
:10421000E32FF0E050935700E49120FF03C0E295B4
:10422000EF703F5FEF708E2F90E0EA30C0F0C796DE
:104230008D939D932F5F243159F74FBF8091E800F4
:10424000877F8093E8006AE270E0CE0101960E94C9
:104250007C1D8091E8008B778093E80057C0C09662
:10426000E7CF6091FF0270910003AE014F5F5F4F97
:104270000E94B71CBC01892B09F448C09091E8004A
:10428000977F9093E80089819A810E94DA1DE1CF9F
:104290008038E1F58091E800877F8093E800809185
:1042A000F6028093F10045CF811130C09091FD025C
:1042B000923060F58091E800877F8093E8009093CA
:1042C000F6020E946D1E8091F602882311F084E0B0
:1042D00005C08091E30087FDFACF81E08093FA0268
:1042E0000E94A11B13C08091FD02813079F481E00E
:1042F000933009F080E08093F8021092E9008091F9
:10430000E800877F8093E8000E946D1E8091E8009E
:1043100083FF0AC08091E800877F8093E800809146
:10432000EB0080628093EB00AA96E3E00C94F72107
:104330000895CF938091FA028823A1F0C091E900FB
:10434000CF709091EC00892F817090FD80E8C82B90
:104350001092E9008091E80083FD0E945120CF7007
:10436000C093E900CF9108950E94BD1E1092FA02F9
:104370000895E8EDF0E08081806180838AE18A958C
:10438000F1F700C08091D90081700895EE0FFF1FF2
:104390000590F491E02D09942F923F924F925F92F5
:1043A0006F927F928F929F92AF92BF92CF92DF9245
:1043B000EF92FF920F931F93CF93DF93CDB7DEB7AA
:1043C000CA1BDB0B0FB6F894DEBF0FBECDBF09943E
:1043D0002A88398848885F846E847D848C849B8495
:1043E000AA84B984C884DF80EE80FD800C811B81A3
:1043F000AA81B981CE0FD11D0FB6F894DEBF0FBED2
:10440000CDBFED010895FB01DC0104C08D91019049
:10441000801921F441505040C8F7881B990B08952A
:10442000FB01DC0102C001900D9241505040D8F7D1
:104430000895F999FECF92BD81BDF89A992780B56C
:104440000895A8E1B0E042E050E00C945D22DC0168
:10445000A40FB51F4150504048F0CB01840F951F69
:104460002E910E94382241505040D0F70895262FB7
:10447000F999FECF92BD81BDF89A019700B402165A
:1044800039F01FBA20BD0FB6F894FA9AF99A0FBE08
:1044900008950396272F0E9438220E943722252F45
:1044A0000E943822242F0C9438220196272F0E9434
:1044B00038220C943722DC01CB01FC01F999FECFA4
:1044C00006C0F2BDE1BDF89A319600B40D9241509C
:1044D0005040B8F70895F894FFCFB204B204020533
:1044E00002056705E104E104E1048305F405030620
:1044F00003062C1423142F14211480148014211467
:10450000801480144B148014561461148014801489
:1045100080148014211480148014211480143D14FC
:10452000801480147E147E147E147E147E147E14F7
:104530007E147E147E146C1480142C141F148014AA
:1045400080148014801480148014801480148014CB
:1045500080146C1480148014211480147314731448
:1045600073147314731473147314731473146C141A
:104570005815CC1560152A152E15641532156815B9
:1045800074153E15C5154215781546157C15A415EC
:104590004A158015AB15501586158E1536156C15F8
:1045A0003A15701554158A159A15B415C3152415A6
:1045B0005C15D3155D1663164C16571669166F16E3
:1045C000751675209D2086219D208621D020F12002
:0645D00086214821542160
:1045D6005602760201000000010000000000000003
:1045E60006010000000407000000000000000001B2
:1045F600005818601B591B2D1B521BE200E900EAEC
:1046060000B500B600B700CD008301CC008A019248
:104616000194012102230224022502260227022AEE
:1046260002B300B4006F0070009F01CB019F02A08F
:1046360002818283E200E900EA00B500B600B70015
:10464600CD008301CC008A0192019401210223024C
:1046560024022502260227022A02B300B4006F00B4
:1046660070009F01CB019F02A00281828336323304
:0E46760031F7F6F5F4946697C63435A00200CD
:00000001FF
